{
  "address": "0xfb0E92d30D044cE395c1849B7c096E1D518d8EF1",
  "abi": [
    {
      "inputs": [
        {
          "internalType": "contract IERC20",
          "name": "_stakingToken",
          "type": "address"
        }
      ],
      "stateMutability": "nonpayable",
      "type": "constructor"
    },
    {
      "anonymous": false,
      "inputs": [
        {
          "indexed": true,
          "internalType": "address",
          "name": "previousOwner",
          "type": "address"
        },
        {
          "indexed": true,
          "internalType": "address",
          "name": "newOwner",
          "type": "address"
        }
      ],
      "name": "OwnershipTransferred",
      "type": "event"
    },
    {
      "anonymous": false,
      "inputs": [
        {
          "indexed": true,
          "internalType": "address",
          "name": "validator",
          "type": "address"
        },
        {
          "indexed": false,
          "internalType": "uint256",
          "name": "amount",
          "type": "uint256"
        }
      ],
      "name": "Slashed",
      "type": "event"
    },
    {
      "anonymous": false,
      "inputs": [
        {
          "indexed": true,
          "internalType": "address",
          "name": "validator",
          "type": "address"
        },
        {
          "indexed": false,
          "internalType": "uint256",
          "name": "amount",
          "type": "uint256"
        }
      ],
      "name": "Staked",
      "type": "event"
    },
    {
      "inputs": [
        {
          "internalType": "address",
          "name": "_validator",
          "type": "address"
        }
      ],
      "name": "getStakeAmount",
      "outputs": [
        {
          "internalType": "uint256",
          "name": "",
          "type": "uint256"
        }
      ],
      "stateMutability": "view",
      "type": "function"
    },
    {
      "inputs": [],
      "name": "getTokenAddress",
      "outputs": [
        {
          "internalType": "address",
          "name": "",
          "type": "address"
        }
      ],
      "stateMutability": "view",
      "type": "function"
    },
    {
      "inputs": [],
      "name": "minStakeAmount",
      "outputs": [
        {
          "internalType": "uint256",
          "name": "",
          "type": "uint256"
        }
      ],
      "stateMutability": "view",
      "type": "function"
    },
    {
      "inputs": [],
      "name": "owner",
      "outputs": [
        {
          "internalType": "address",
          "name": "",
          "type": "address"
        }
      ],
      "stateMutability": "view",
      "type": "function"
    },
    {
      "inputs": [],
      "name": "renounceOwnership",
      "outputs": [],
      "stateMutability": "nonpayable",
      "type": "function"
    },
    {
      "inputs": [
        {
          "internalType": "address",
          "name": "_validator",
          "type": "address"
        }
      ],
      "name": "slash",
      "outputs": [],
      "stateMutability": "nonpayable",
      "type": "function"
    },
    {
      "inputs": [],
      "name": "slashPercentage",
      "outputs": [
        {
          "internalType": "uint256",
          "name": "",
          "type": "uint256"
        }
      ],
      "stateMutability": "view",
      "type": "function"
    },
    {
      "inputs": [
        {
          "internalType": "address",
          "name": "_staker",
          "type": "address"
        },
        {
          "internalType": "uint256",
          "name": "_amount",
          "type": "uint256"
        }
      ],
      "name": "stake",
      "outputs": [],
      "stateMutability": "nonpayable",
      "type": "function"
    },
    {
      "inputs": [
        {
          "internalType": "address",
          "name": "",
          "type": "address"
        }
      ],
      "name": "stakes",
      "outputs": [
        {
          "internalType": "uint256",
          "name": "",
          "type": "uint256"
        }
      ],
      "stateMutability": "view",
      "type": "function"
    },
    {
      "inputs": [],
      "name": "stakingToken",
      "outputs": [
        {
          "internalType": "contract IERC20",
          "name": "",
          "type": "address"
        }
      ],
      "stateMutability": "view",
      "type": "function"
    },
    {
      "inputs": [
        {
          "internalType": "address",
          "name": "newOwner",
          "type": "address"
        }
      ],
      "name": "transferOwnership",
      "outputs": [],
      "stateMutability": "nonpayable",
      "type": "function"
    },
    {
      "inputs": [
        {
          "internalType": "address",
          "name": "_staker",
          "type": "address"
        },
        {
          "internalType": "uint256",
          "name": "_amount",
          "type": "uint256"
        }
      ],
      "name": "unstake",
      "outputs": [],
      "stateMutability": "nonpayable",
      "type": "function"
    }
  ],
  "transactionHash": "0xe7560b4e4513ee136075f334626c2dafe5f5aa7c1a9c84808e536f00e4abd5c4",
  "args": [
    "0xE75E8f515A10d0C09EEd143364caDDaE7fEE5Fc5"
  ],
  "numDeployments": 1,
  "solcInputHash": "b46ac58976259df34b3742db92103219",
  "bytecode": "0x6080604052678ac7230489e80000600355606460045534801561002157600080fd5b50604051610909380380610909833981016040819052610040916100be565b6100493361006e565b600180546001600160a01b0319166001600160a01b03929092169190911790556100ee565b600080546001600160a01b038381166001600160a01b0319831681178455604051919092169283917f8be0079c531659141344cd1fd0a4f28419497f9722a3daafe3b4186f6b6457e09190a35050565b6000602082840312156100d057600080fd5b81516001600160a01b03811681146100e757600080fd5b9392505050565b61080c806100fd6000396000f3fe608060405234801561001057600080fd5b50600436106100b45760003560e01c8063adc9772e11610071578063adc9772e14610168578063bd58199a1461017b578063c2a672e014610184578063c96be4cb14610197578063f1887684146101aa578063f2fde38b146101b357600080fd5b80630c2eb403146100b957806310fe9ae8146100f557806316934fc41461011a578063715018a61461013a57806372f702f3146101445780638da5cb5b14610157575b600080fd5b6100e26100c73660046106ed565b6001600160a01b031660009081526002602052604090205490565b6040519081526020015b60405180910390f35b6001546001600160a01b03165b6040516001600160a01b0390911681526020016100ec565b6100e26101283660046106ed565b60026020526000908152604090205481565b6101426101c6565b005b600154610102906001600160a01b031681565b6000546001600160a01b0316610102565b61014261017636600461070f565b6101da565b6100e260045481565b61014261019236600461070f565b610331565b6101426101a53660046106ed565b610448565b6100e260035481565b6101426101c13660046106ed565b6105ae565b6101ce610627565b6101d86000610681565b565b60035481101561023f5760405162461bcd60e51b815260206004820152602560248201527f416d6f756e74206d7573742062652067726561746572207468616e20313020746044820152646f6b656e7360d81b60648201526084015b60405180910390fd5b6001600160a01b0382166000908152600260205260408120805483929061026790849061074f565b90915550506001546040516323b872dd60e01b81526001600160a01b03848116600483015230602483015260448201849052909116906323b872dd906064016020604051808303816000875af11580156102c5573d6000803e3d6000fd5b505050506040513d601f19601f820116820180604052508101906102e99190610768565b50816001600160a01b03167f9e71bc8eea02a63969f509818f2dafb9254532904319f9dbda79b67bd34a5f3d8260405161032591815260200190565b60405180910390a25050565b6003548111801561035a57506001600160a01b0382166000908152600260205260409020548111155b61039f5760405162461bcd60e51b8152602060048201526016602482015275125b9d985b1a59081d5b9cdd185ad948185b5bdd5b9d60521b6044820152606401610236565b6001600160a01b038216600090815260026020526040812080548392906103c790849061078a565b909155505060015460405163a9059cbb60e01b81526001600160a01b038481166004830152602482018490529091169063a9059cbb906044016020604051808303816000875af115801561041f573d6000803e3d6000fd5b505050506040513d601f19601f820116820180604052508101906104439190610768565b505050565b610450610627565b6001600160a01b0381166000908152600260205260409020546104ae5760405162461bcd60e51b815260206004820152601660248201527556616c696461746f7220686173206e6f207374616b6560501b6044820152606401610236565b6004546001600160a01b03821660009081526002602052604081205490916064916104d9919061079d565b6104e391906107b4565b6001600160a01b03831660009081526002602052604081208054929350839290919061051090849061078a565b9091555050600154604051630852cd8d60e31b8152600481018390526001600160a01b03909116906342966c6890602401600060405180830381600087803b15801561055b57600080fd5b505af115801561056f573d6000803e3d6000fd5b50505050816001600160a01b03167f4ed05e9673c26d2ed44f7ef6a7f2942df0ee3b5e1e17db4b99f9dcd261a339cd8260405161032591815260200190565b6105b6610627565b6001600160a01b03811661061b5760405162461bcd60e51b815260206004820152602660248201527f4f776e61626c653a206e6577206f776e657220697320746865207a65726f206160448201526564647265737360d01b6064820152608401610236565b61062481610681565b50565b6000546001600160a01b031633146101d85760405162461bcd60e51b815260206004820181905260248201527f4f776e61626c653a2063616c6c6572206973206e6f7420746865206f776e65726044820152606401610236565b600080546001600160a01b038381166001600160a01b0319831681178455604051919092169283917f8be0079c531659141344cd1fd0a4f28419497f9722a3daafe3b4186f6b6457e09190a35050565b80356001600160a01b03811681146106e857600080fd5b919050565b6000602082840312156106ff57600080fd5b610708826106d1565b9392505050565b6000806040838503121561072257600080fd5b61072b836106d1565b946020939093013593505050565b634e487b7160e01b600052601160045260246000fd5b8082018082111561076257610762610739565b92915050565b60006020828403121561077a57600080fd5b8151801515811461070857600080fd5b8181038181111561076257610762610739565b808202811582820484141761076257610762610739565b6000826107d157634e487b7160e01b600052601260045260246000fd5b50049056fea264697066735822122096bb7e26292886f9df30cb4fa84ea8facceb318bc6fc423e9b1eda05bda2958964736f6c63430008110033",
  "devdoc": {
    "kind": "dev",
    "methods": {
      "owner()": {
        "details": "Returns the address of the current owner."
      },
      "renounceOwnership()": {
        "details": "Leaves the contract without owner. It will not be possible to call `onlyOwner` functions. Can only be called by the current owner. NOTE: Renouncing ownership will leave the contract without an owner, thereby disabling any functionality that is only available to the owner."
      },
      "transferOwnership(address)": {
        "details": "Transfers ownership of the contract to a new account (`newOwner`). Can only be called by the current owner."
      }
    },
    "version": 1
  },
  "userdoc": {
    "kind": "user",
    "methods": {},
    "version": 1
  },
  "storageLayout": {
    "storage": [
      {
        "astId": 7,
        "contract": "contracts/StakingManager.sol:StakingManager",
        "label": "_owner",
        "offset": 0,
        "slot": "0",
        "type": "t_address"
      },
      {
        "astId": 923,
        "contract": "contracts/StakingManager.sol:StakingManager",
        "label": "stakingToken",
        "offset": 0,
        "slot": "1",
        "type": "t_contract(IERC20)777"
      },
      {
        "astId": 927,
        "contract": "contracts/StakingManager.sol:StakingManager",
        "label": "stakes",
        "offset": 0,
        "slot": "2",
        "type": "t_mapping(t_address,t_uint256)"
      },
      {
        "astId": 930,
        "contract": "contracts/StakingManager.sol:StakingManager",
        "label": "minStakeAmount",
        "offset": 0,
        "slot": "3",
        "type": "t_uint256"
      },
      {
        "astId": 933,
        "contract": "contracts/StakingManager.sol:StakingManager",
        "label": "slashPercentage",
        "offset": 0,
        "slot": "4",
        "type": "t_uint256"
      }
    ],
    "types": {
      "t_address": {
        "encoding": "inplace",
        "label": "address",
        "numberOfBytes": "20"
      },
      "t_contract(IERC20)777": {
        "encoding": "inplace",
        "label": "contract IERC20",
        "numberOfBytes": "20"
      },
      "t_mapping(t_address,t_uint256)": {
        "encoding": "mapping",
        "key": "t_address",
        "label": "mapping(address => uint256)",
        "numberOfBytes": "32",
        "value": "t_uint256"
      },
      "t_uint256": {
        "encoding": "inplace",
        "label": "uint256",
        "numberOfBytes": "32"
      }
    }
  }
}